:100000000C942A000C946E000C943C000C943C0060
:100010000C943C000C943C000C943C000C943C0070
:100020000C943C000C9456000C943C000C943C0046
:100030000C943C000C943C000C943C000C943C0050
:100040000C943C000C943C000C943C000C943C0040
:100050000C943C0011241FBECFE5D4E0DEBFCDBF21
:1000600020E0A0E6B0E001C01D92AE36B207E1F795
:100070000E940A010C94D3030C9400008FEF84BB00
:100080008FE085BB08958FEF84BB85E385BB089522
:100090008FEF84BB8DE185BB08958FEF84BB87E232
:1000A00085BB089581EE84BB85BB08951F920F9296
:1000B0000FB60F9211248F939F93C39A809168007B
:1000C00090916900019690936900809368009F91D8
:1000D0008F910F900FBE0F901F9018951F920F9247
:1000E0000FB60F921124CF92DF92EF92FF922F93CF
:1000F0003F934F935F936F937F938F939F93AF93B0
:10010000BF93CF93EF93FF93609168007091690064
:10011000C2B780E090E00E94AF0220E030E04FE7FD
:1001200053E40E9442036B017C016C2F70E080E07D
:1001300090E00E94B1029B01AC01C701B6010E9490
:10014000D10160936A0070936B0080936C00909370
:100150006D0060916A0070916B0080916C009091CD
:100160006D0020E030EB4EE756E40E94420320E0B1
:1001700034E244E75BE40E943D02609364007093C4
:100180006500809366009093670088B388BB8AE01F
:100190008A95F1F700C0C19A85E38A95F1F70000CE
:1001A00088B388BB109269001092680012BEFF915C
:1001B000EF91CF91BF91AF919F918F917F916F916F
:1001C0005F914F913F912F91FF90EF90DF90CF90F3
:1001D0000F900FBE0F901F9018958FEF87BB81E097
:1001E00083BF89BF80E48BBF82E085BF789488B3EA
:1001F00088BB8AE08A95F1F700C0C19A85E38A95A9
:10020000F1F7000088B388BB109269001092680073
:1002100012BE08950E94ED006894882485F80F2E80
:10022000F2E89F2EF02D0F2EFDE1AF2EF02D0F2EB8
:10023000F8E3EF2EFF24F394F02D0F2EFEE0BF2EF7
:10024000F02DC12C6894DD24D7F800EE17E8D1EE2C
:10025000C7EC8091680090916900803E924090F0D8
:1002600088B388BB3AE03A95F1F700C0C19A45E3FC
:100270004A95F1F7000088B388BB1092690010928C
:10028000680012BE60916400709165008091660004
:100290009091670020E030E040EA51E40E943D0385
:1002A000181614F4D8BA44C088BA8D9A9FBCAEBC54
:1002B000F7BCE6BC8B2D9C2D9BBD8ABD2FE738E398
:1002C00041E0215030404040E1F700C0000001967D
:1002D0008332910589F78FEF91EE24E081509040B1
:1002E0002040E1F700C0000082E290E09BBD8ABDA3
:1002F0003FE748E321E0315040402040E1F700C0B3
:10030000000001978D30910589F73FEF41EE84E0C1
:10031000315040408040E1F700C0000011BA9FEF2B
:1003200025EA3EE0915020403040E1F700C0000057
:1003300007B916B9369A3699FECF84B195B1909324
:1003400063008093620017B816B8D7B9C6B936995A
:10035000FECF84B195B190936100809360002091AD
:100360006200309163002D3B41EB340718F00E948E
:1003700043006FCF2838304918F40E943E0069CFFF
:10038000813B23EB920718F00E944D0062CF883822
:10039000904918F40E9448005CCF0E94520059CF47
:1003A0005058BB27AA270E94E8010C9403030E941F
:1003B000F50238F00E94FC0220F039F49F3F19F456
:1003C00026F40C94F2020EF4E095E7FB0C94EC0298
:1003D000E92F0E94140358F3BA17620773078407C2
:1003E000950720F079F4A6F50C9436030EF4E09509
:1003F0000B2EBA2FA02D0B01B90190010C01CA01DF
:10040000A0011124FF27591B99F0593F50F4503E89
:1004100068F11A16F040A22F232F342F4427585F7B
:10042000F3CF469537952795A795F0405395C9F793
:100430007EF41F16BA0B620B730B840BBAF091504B
:10044000A1F0FF0FBB1F661F771F881FC2F70EC0EA
:10045000BA0F621F731F841F48F4879577956795BD
:10046000B795F7959E3F08F0B0CF9395880F08F0A9
:100470009927EE0F9795879508950E9451020C9445
:1004800003030E94FC0258F00E94F50240F029F498
:100490005F3F29F00C94EC0251110C9437030C943B
:1004A000F2020E94140368F39923B1F3552391F3E8
:1004B000951B550BBB27AA2762177307840738F0D3
:1004C0009F5F5F4F220F331F441FAA1FA9F335D030
:1004D0000E2E3AF0E0E832D091505040E695001CE4
:1004E000CAF72BD0FE2F29D0660F771F881FBB1F9E
:1004F000261737074807AB07B0E809F0BB0B802D7C
:10050000BF01FF2793585F4F3AF09E3F510578F0A7
:100510000C94EC020C9437035F3FE4F3983ED4F361
:10052000869577956795B795F7959F5FC9F7880F7B
:10053000911D9695879597F90895E1E0660F771FCD
:10054000881FBB1F621773078407BA0720F0621B5E
:10055000730B840BBA0BEE1F88F7E0950895E894AF
:1005600009C097FB3EF490958095709561957F4FFB
:100570008F4F9F4F9923A9F0F92F96E9BB279395A9
:10058000F695879577956795B795F111F8CFFAF4B9
:10059000BB0F11F460FF1BC06F5F7F4F8F4F9F4FEA
:1005A00016C0882311F096E911C0772321F09EE848
:1005B000872F762F05C0662371F096E8862F70E0AE
:1005C00060E02AF09A95660F771F881FDAF7880F88
:1005D0009695879597F9089597F99F6780E870E059
:1005E00060E008959FEF80EC089500240A941616A9
:1005F000170618060906089500240A941216130611
:10060000140605060895092E0394000C11F488239E
:1006100052F0BB0F40F4BF2B11F460FF04C06F5FBA
:100620007F4F8F4F9F4F089557FD9058440F551F90
:1006300059F05F3F71F04795880F97FB991F61F064
:100640009F3F79F087950895121613061406551FDB
:10065000F2CF4695F1DF08C0161617061806991F47
:10066000F1CF86957105610508940895E894BB273C
:1006700066277727CB0197F908950E94AF0308F406
:100680008FEF08950E9455030C9403030E94F50216
:1006900038F00E94FC0220F0952311F00C94EC023B
:1006A0000C94F20211240C9437030E94140370F38B
:1006B000959FC1F3950F50E0551F629FF001729F07
:1006C000BB27F00DB11D639FAA27F00DB11DAA1F16
:1006D000649F6627B00DA11D661F829F2227B00D63
:1006E000A11D621F739FB00DA11D621F839FA00DEE
:1006F000611D221F749F3327A00D611D231F849F3E
:10070000600D211D822F762F6A2F11249F57504094
:100710009AF0F1F088234AF0EE0FFF1FBB1F661F0F
:10072000771F881F91505040A9F79E3F510580F0D8
:100730000C94EC020C9437035F3FE4F3983ED4F33F
:10074000869577956795B795F795E7959F5FC1F77C
:10075000FE2B880F911D9695879597F90895990F0F
:100760000008550FAA0BE0E8FEEF16161706E8077B
:10077000F907C0F012161306E407F50798F0621B9C
:10078000730B840B950B39F40A2661F0232B242B71
:10079000252B21F408950A2609F4A140A6958FEF90
:0A07A000811D811D0895F894FFCF1C
:00000001FF
