S0160000536F6E61725F44697374616E63652E7372656381
S11300000C942A000C9456000C943C000C943C0074
S11300100C943C000C943C000C943C000C943C006C
S11300200C943C000C943E000C943C000C943C005A
S11300300C943C000C943C000C943C000C943C004C
S11300400C943C000C943C000C943C000C943C003C
S11300500C943C0011241FBECFE5D4E0DEBFCDBF1D
S113006020E0A0E6B0E001C01D92AA36B207E1F795
S11300700E94F2000C9426030C9400001F920F922D
S11300800FB60F9211248F939F93C39A80916400AB
S113009090916500019690936500809364009F9110
S11300A08F910F900FBE0F901F9018951F920F9273
S11300B00FB60F921124CF92DF92EF92FF922F93FB
S11300C03F934F935F936F937F938F939F93AF93DC
S11300D0BF93CF93EF93FF93609164007091650099
S11300E0C2B780E090E00E94020220E030E04FE7D7
S11300F053E40E9495026B017C016C2F70E080E058
S113010090E00E9404029B01AC01C701B6010E9469
S11301102401609366007093670080936800909355
S11301206900609166007091670080916800909109
S1130130690020E030EB4EE756E40E94950220E08F
S113014034E244E75BE40E949001609360007093A2
S11301506100809362009093630088B388BB8AE057
S11301608A95F1F700C0C19A85E38A95F1F70000FA
S113017088B388BB109265001092640012BEFF9190
S1130180EF91CF91BF91AF919F918F917F916F919B
S11301905F914F913F912F91FF90EF90DF90CF901F
S11301A00F900FBE0F901F9018958FEF87BB81E0C3
S11301B083BF89BF80E48BBF82E085BF789488B316
S11301C088BB8AE08A95F1F700C0C19A85E38A95D5
S11301D0F1F7000088B388BB1092650010926400A8
S11301E012BE08950E94D500D0E2C0E88091640058
S11301F090916500803E924090F088B388BB8AE07D
S11302008A95F1F700C0C19A25E32A95F1F7000019
S113021088B388BB109265001092640012BE60918E
S1130220600070916100809162009091630020E011
S113023030E040EA51E40E949002181614F4C8BB5E
S1130240D5CFD8BBD3CF5058BB27AA270E943B0198
S11302500C9456020E94480238F00E944F0220F08B
S113026039F49F3F19F426F40C9445020EF4E095FA
S1130270E7FB0C943F02E92F0E94670258F3BA1778
S1130280620773078407950720F079F4A6F50C94A8
S113029089020EF4E0950B2EBA2FA02D0B01B901A3
S11302A090010C01CA01A0011124FF27591B99F0E8
S11302B0593F50F4503E68F11A16F040A22F232FF4
S11302C0342F4427585FF3CF469537952795A79544
S11302D0F0405395C9F77EF41F16BA0B620B730BEB
S11302E0840BBAF09150A1F0FF0FBB1F661F771F5C
S11302F0881FC2F70EC0BA0F621F731F841F48F411
S1130300879577956795B795F7959E3F08F0B0CF99
S11303109395880F08F09927EE0F97958795089580
S11303200E94A4010C9456020E944F0258F00E94AD
S1130330480240F029F45F3F29F00C943F02511128
S11303400C948A020C9445020E94670268F3992374
S1130350B1F3552391F3951B550BBB27AA276217BD
S11303607307840738F09F5F5F4F220F331F441FCA
S1130370AA1FA9F335D00E2E3AF0E0E832D09150FE
S11303805040E695001CCAF72BD0FE2F29D0660FEB
S1130390771F881FBB1F261737074807AB07B0E82E
S11303A009F0BB0B802DBF01FF2793585F4F3AF034
S11303B09E3F510578F00C943F020C948A025F3FF3
S11303C0E4F3983ED4F3869577956795B795F795BA
S11303D09F5FC9F7880F911D9695879597F90895A2
S11303E0E1E0660F771F881FBB1F6217730784073E
S11303F0BA0720F0621B730B840BBA0BEE1F88F74D
S1130400E0950895E89409C097FB3EF49095809593
S1130410709561957F4F8F4F9F4F9923A9F0F92FC6
S113042096E9BB279395F695879577956795B79544
S1130430F111F8CFFAF4BB0F11F460FF1BC06F5F2A
S11304407F4F8F4F9F4F16C0882311F096E911C03C
S1130450772321F09EE8872F762F05C0662371F05D
S113046096E8862F70E060E02AF09A95660F771F71
S1130470881FDAF7880F9695879597F9089597F965
S11304809F6780E870E060E008959FEF80EC089536
S113049000240A941616170618060906089500245F
S11304A00A9412161306140605060895092E0394D9
S11304B0000C11F4882352F0BB0F40F4BF2B11F44D
S11304C060FF04C06F5F7F4F8F4F9F4F089557FDAC
S11304D09058440F551F59F05F3F71F04795880FAE
S11304E097FB991F61F09F3F79F087950895121645
S11304F013061406551FF2CF4695F1DF08C01616F1
S113050017061806991FF1CF8695710561050894A1
S11305100895E894BB2766277727CB0197F90895B8
S11305200E94020308F48FEF08950E94A8020C941D
S113053056020E94480238F00E944F0220F0952390
S113054011F00C943F020C94450211240C948A027D
S11305500E94670270F3959FC1F3950F50E0551FF9
S1130560629FF001729FBB27F00DB11D639FAA2704
S1130570F00DB11DAA1F649F6627B00DA11D661F53
S1130580829F2227B00DA11D621F739FB00DA11D74
S1130590621F839FA00D611D221F749F3327A00D2E
S11305A0611D231F849F600D211D822F762F6A2FCA
S11305B011249F5750409AF0F1F088234AF0EE0F2F
S11305C0FF1FBB1F661F771F881F91505040A9F75C
S11305D09E3F510580F00C943F020C948A025F3FC9
S11305E0E4F3983ED4F3869577956795B795F79598
S11305F0E7959F5FC1F7FE2B880F911D9695879510
S113060097F90895990F0008550FAA0BE0E8FEEF3B
S113061016161706E807F907C0F012161306E407C2
S1130620F50798F0621B730B840B950B39F40A26BB
S113063061F0232B242B252B21F408950A2609F499
S1130640A140A6958FEF811D811D0895F894FFCFD9
S9030000FC
