S00D0000536572766F2E7372656308
S11300000C942A000C9434000C9434000C943400A6
S11300100C9434000C9434000C9434000C9434008C
S11300200C9434000C9434000C9434000C9434007C
S11300300C9434000C9434000C9434000C9434006C
S11300400C9434000C9434000C9434000C9434005C
S11300500C94340011241FBECFE5D4E0DEBFCDBF25
S11300600E9436000C945F000C94000080E281BB77
S113007082E88FBD8DE18EBD88E391E097BD86BD9A
S113008039E020E0832F922F9BBD8ABDEFE3FCE98A
S11300903197F1F700C00000019687329105A1F76E
S11300A086E290E09BBD8ABDEFE3FCE93197F1F76E
S11300B000C00000019788309105A1F7E3CFF894C0
S10500C0FFCF6C
S9030000FC
